{
  "_format": "hh-sol-artifact-1",
  "contractName": "TokenPaymaster",
  "sourceName": "contracts/TokenPaymaster.sol",
  "abi": [
    {
      "inputs": [
        {
          "internalType": "address",
          "name": "uniswapRouter",
          "type": "address"
        },
        {
          "internalType": "address",
          "name": "forwarder",
          "type": "address"
        },
        {
          "internalType": "address",
          "name": "paymentToken",
          "type": "address"
        },
        {
          "internalType": "uint256",
          "name": "fee",
          "type": "uint256"
        },
        {
          "internalType": "contract IRelayHub",
          "name": "hub",
          "type": "address"
        }
      ],
      "stateMutability": "nonpayable",
      "type": "constructor"
    },
    {
      "anonymous": false,
      "inputs": [
        {
          "indexed": true,
          "internalType": "address",
          "name": "previousOwner",
          "type": "address"
        },
        {
          "indexed": true,
          "internalType": "address",
          "name": "newOwner",
          "type": "address"
        }
      ],
      "name": "OwnershipTransferred",
      "type": "event"
    },
    {
      "inputs": [],
      "name": "CALLDATA_SIZE_LIMIT",
      "outputs": [
        {
          "internalType": "uint256",
          "name": "",
          "type": "uint256"
        }
      ],
      "stateMutability": "view",
      "type": "function"
    },
    {
      "inputs": [],
      "name": "FORWARDER_HUB_OVERHEAD",
      "outputs": [
        {
          "internalType": "uint256",
          "name": "",
          "type": "uint256"
        }
      ],
      "stateMutability": "view",
      "type": "function"
    },
    {
      "inputs": [],
      "name": "PAYMASTER_ACCEPTANCE_BUDGET",
      "outputs": [
        {
          "internalType": "uint256",
          "name": "",
          "type": "uint256"
        }
      ],
      "stateMutability": "view",
      "type": "function"
    },
    {
      "inputs": [],
      "name": "POST_RELAYED_CALL_GAS_LIMIT",
      "outputs": [
        {
          "internalType": "uint256",
          "name": "",
          "type": "uint256"
        }
      ],
      "stateMutability": "view",
      "type": "function"
    },
    {
      "inputs": [],
      "name": "PRE_RELAYED_CALL_GAS_LIMIT",
      "outputs": [
        {
          "internalType": "uint256",
          "name": "",
          "type": "uint256"
        }
      ],
      "stateMutability": "view",
      "type": "function"
    },
    {
      "inputs": [
        {
          "components": [
            {
              "components": [
                {
                  "internalType": "address",
                  "name": "from",
                  "type": "address"
                },
                {
                  "internalType": "address",
                  "name": "to",
                  "type": "address"
                },
                {
                  "internalType": "uint256",
                  "name": "value",
                  "type": "uint256"
                },
                {
                  "internalType": "uint256",
                  "name": "gas",
                  "type": "uint256"
                },
                {
                  "internalType": "uint256",
                  "name": "nonce",
                  "type": "uint256"
                },
                {
                  "internalType": "bytes",
                  "name": "data",
                  "type": "bytes"
                },
                {
                  "internalType": "uint256",
                  "name": "validUntil",
                  "type": "uint256"
                }
              ],
              "internalType": "struct IForwarder.ForwardRequest",
              "name": "request",
              "type": "tuple"
            },
            {
              "components": [
                {
                  "internalType": "uint256",
                  "name": "gasPrice",
                  "type": "uint256"
                },
                {
                  "internalType": "uint256",
                  "name": "pctRelayFee",
                  "type": "uint256"
                },
                {
                  "internalType": "uint256",
                  "name": "baseRelayFee",
                  "type": "uint256"
                },
                {
                  "internalType": "address",
                  "name": "relayWorker",
                  "type": "address"
                },
                {
                  "internalType": "address",
                  "name": "paymaster",
                  "type": "address"
                },
                {
                  "internalType": "address",
                  "name": "forwarder",
                  "type": "address"
                },
                {
                  "internalType": "bytes",
                  "name": "paymasterData",
                  "type": "bytes"
                },
                {
                  "internalType": "uint256",
                  "name": "clientId",
                  "type": "uint256"
                }
              ],
              "internalType": "struct GsnTypes.RelayData",
              "name": "relayData",
              "type": "tuple"
            }
          ],
          "internalType": "struct GsnTypes.RelayRequest",
          "name": "relayRequest",
          "type": "tuple"
        }
      ],
      "name": "_verifyForwarder",
      "outputs": [],
      "stateMutability": "view",
      "type": "function"
    },
    {
      "inputs": [],
      "name": "gasUsedByPost",
      "outputs": [
        {
          "internalType": "uint256",
          "name": "",
          "type": "uint256"
        }
      ],
      "stateMutability": "view",
      "type": "function"
    },
    {
      "inputs": [],
      "name": "getGasAndDataLimits",
      "outputs": [
        {
          "components": [
            {
              "internalType": "uint256",
              "name": "acceptanceBudget",
              "type": "uint256"
            },
            {
              "internalType": "uint256",
              "name": "preRelayedCallGasLimit",
              "type": "uint256"
            },
            {
              "internalType": "uint256",
              "name": "postRelayedCallGasLimit",
              "type": "uint256"
            },
            {
              "internalType": "uint256",
              "name": "calldataSizeLimit",
              "type": "uint256"
            }
          ],
          "internalType": "struct IPaymaster.GasAndDataLimits",
          "name": "limits",
          "type": "tuple"
        }
      ],
      "stateMutability": "view",
      "type": "function"
    },
    {
      "inputs": [],
      "name": "getHubAddr",
      "outputs": [
        {
          "internalType": "address",
          "name": "",
          "type": "address"
        }
      ],
      "stateMutability": "view",
      "type": "function"
    },
    {
      "inputs": [],
      "name": "getPaymentData",
      "outputs": [
        {
          "internalType": "address",
          "name": "",
          "type": "address"
        },
        {
          "internalType": "uint256",
          "name": "",
          "type": "uint256"
        }
      ],
      "stateMutability": "view",
      "type": "function"
    },
    {
      "inputs": [],
      "name": "getRelayHubDeposit",
      "outputs": [
        {
          "internalType": "uint256",
          "name": "",
          "type": "uint256"
        }
      ],
      "stateMutability": "view",
      "type": "function"
    },
    {
      "inputs": [
        {
          "internalType": "uint256",
          "name": "amountIn",
          "type": "uint256"
        },
        {
          "internalType": "address[]",
          "name": "path",
          "type": "address[]"
        }
      ],
      "name": "getTokenToEthOutput",
      "outputs": [
        {
          "internalType": "uint256",
          "name": "",
          "type": "uint256"
        }
      ],
      "stateMutability": "view",
      "type": "function"
    },
    {
      "inputs": [
        {
          "internalType": "address",
          "name": "token",
          "type": "address"
        }
      ],
      "name": "isTokenWhitelisted",
      "outputs": [
        {
          "internalType": "bool",
          "name": "",
          "type": "bool"
        }
      ],
      "stateMutability": "view",
      "type": "function"
    },
    {
      "inputs": [],
      "name": "minBalance",
      "outputs": [
        {
          "internalType": "uint256",
          "name": "",
          "type": "uint256"
        }
      ],
      "stateMutability": "view",
      "type": "function"
    },
    {
      "inputs": [],
      "name": "minGas",
      "outputs": [
        {
          "internalType": "uint256",
          "name": "",
          "type": "uint256"
        }
      ],
      "stateMutability": "view",
      "type": "function"
    },
    {
      "inputs": [],
      "name": "owner",
      "outputs": [
        {
          "internalType": "address",
          "name": "",
          "type": "address"
        }
      ],
      "stateMutability": "view",
      "type": "function"
    },
    {
      "inputs": [
        {
          "internalType": "bytes",
          "name": "context",
          "type": "bytes"
        },
        {
          "internalType": "bool",
          "name": "success",
          "type": "bool"
        },
        {
          "internalType": "uint256",
          "name": "gasUseWithoutPost",
          "type": "uint256"
        },
        {
          "components": [
            {
              "internalType": "uint256",
              "name": "gasPrice",
              "type": "uint256"
            },
            {
              "internalType": "uint256",
              "name": "pctRelayFee",
              "type": "uint256"
            },
            {
              "internalType": "uint256",
              "name": "baseRelayFee",
              "type": "uint256"
            },
            {
              "internalType": "address",
              "name": "relayWorker",
              "type": "address"
            },
            {
              "internalType": "address",
              "name": "paymaster",
              "type": "address"
            },
            {
              "internalType": "address",
              "name": "forwarder",
              "type": "address"
            },
            {
              "internalType": "bytes",
              "name": "paymasterData",
              "type": "bytes"
            },
            {
              "internalType": "uint256",
              "name": "clientId",
              "type": "uint256"
            }
          ],
          "internalType": "struct GsnTypes.RelayData",
          "name": "relayData",
          "type": "tuple"
        }
      ],
      "name": "postRelayedCall",
      "outputs": [],
      "stateMutability": "nonpayable",
      "type": "function"
    },
    {
      "inputs": [
        {
          "components": [
            {
              "components": [
                {
                  "internalType": "address",
                  "name": "from",
                  "type": "address"
                },
                {
                  "internalType": "address",
                  "name": "to",
                  "type": "address"
                },
                {
                  "internalType": "uint256",
                  "name": "value",
                  "type": "uint256"
                },
                {
                  "internalType": "uint256",
                  "name": "gas",
                  "type": "uint256"
                },
                {
                  "internalType": "uint256",
                  "name": "nonce",
                  "type": "uint256"
                },
                {
                  "internalType": "bytes",
                  "name": "data",
                  "type": "bytes"
                },
                {
                  "internalType": "uint256",
                  "name": "validUntil",
                  "type": "uint256"
                }
              ],
              "internalType": "struct IForwarder.ForwardRequest",
              "name": "request",
              "type": "tuple"
            },
            {
              "components": [
                {
                  "internalType": "uint256",
                  "name": "gasPrice",
                  "type": "uint256"
                },
                {
                  "internalType": "uint256",
                  "name": "pctRelayFee",
                  "type": "uint256"
                },
                {
                  "internalType": "uint256",
                  "name": "baseRelayFee",
                  "type": "uint256"
                },
                {
                  "internalType": "address",
                  "name": "relayWorker",
                  "type": "address"
                },
                {
                  "internalType": "address",
                  "name": "paymaster",
                  "type": "address"
                },
                {
                  "internalType": "address",
                  "name": "forwarder",
                  "type": "address"
                },
                {
                  "internalType": "bytes",
                  "name": "paymasterData",
                  "type": "bytes"
                },
                {
                  "internalType": "uint256",
                  "name": "clientId",
                  "type": "uint256"
                }
              ],
              "internalType": "struct GsnTypes.RelayData",
              "name": "relayData",
              "type": "tuple"
            }
          ],
          "internalType": "struct GsnTypes.RelayRequest",
          "name": "relayRequest",
          "type": "tuple"
        },
        {
          "internalType": "bytes",
          "name": "",
          "type": "bytes"
        },
        {
          "internalType": "bytes",
          "name": "",
          "type": "bytes"
        },
        {
          "internalType": "uint256",
          "name": "maxPossibleGas",
          "type": "uint256"
        }
      ],
      "name": "preRelayedCall",
      "outputs": [
        {
          "internalType": "bytes",
          "name": "context",
          "type": "bytes"
        },
        {
          "internalType": "bool",
          "name": "revertOnRecipientRevert",
          "type": "bool"
        }
      ],
      "stateMutability": "nonpayable",
      "type": "function"
    },
    {
      "inputs": [],
      "name": "renounceOwnership",
      "outputs": [],
      "stateMutability": "nonpayable",
      "type": "function"
    },
    {
      "inputs": [
        {
          "internalType": "uint256",
          "name": "fee",
          "type": "uint256"
        }
      ],
      "name": "setFee",
      "outputs": [],
      "stateMutability": "nonpayable",
      "type": "function"
    },
    {
      "inputs": [
        {
          "internalType": "uint256",
          "name": "_gasUsedByPost",
          "type": "uint256"
        }
      ],
      "name": "setGasUsedByPost",
      "outputs": [],
      "stateMutability": "nonpayable",
      "type": "function"
    },
    {
      "inputs": [
        {
          "internalType": "uint256",
          "name": "_minBalance",
          "type": "uint256"
        }
      ],
      "name": "setMinBalance",
      "outputs": [],
      "stateMutability": "nonpayable",
      "type": "function"
    },
    {
      "inputs": [
        {
          "internalType": "uint256",
          "name": "_minGas",
          "type": "uint256"
        }
      ],
      "name": "setMinGas",
      "outputs": [],
      "stateMutability": "nonpayable",
      "type": "function"
    },
    {
      "inputs": [
        {
          "internalType": "address",
          "name": "paymentToken",
          "type": "address"
        }
      ],
      "name": "setPaymentToken",
      "outputs": [],
      "stateMutability": "nonpayable",
      "type": "function"
    },
    {
      "inputs": [
        {
          "internalType": "contract IRelayHub",
          "name": "hub",
          "type": "address"
        }
      ],
      "name": "setRelayHub",
      "outputs": [],
      "stateMutability": "nonpayable",
      "type": "function"
    },
    {
      "inputs": [
        {
          "internalType": "address",
          "name": "_target",
          "type": "address"
        }
      ],
      "name": "setTarget",
      "outputs": [],
      "stateMutability": "nonpayable",
      "type": "function"
    },
    {
      "inputs": [
        {
          "internalType": "address",
          "name": "forwarder",
          "type": "address"
        }
      ],
      "name": "setTrustedForwarder",
      "outputs": [],
      "stateMutability": "nonpayable",
      "type": "function"
    },
    {
      "inputs": [],
      "name": "target",
      "outputs": [
        {
          "internalType": "address",
          "name": "",
          "type": "address"
        }
      ],
      "stateMutability": "view",
      "type": "function"
    },
    {
      "inputs": [],
      "name": "togglePause",
      "outputs": [],
      "stateMutability": "nonpayable",
      "type": "function"
    },
    {
      "inputs": [
        {
          "internalType": "address",
          "name": "newOwner",
          "type": "address"
        }
      ],
      "name": "transferOwnership",
      "outputs": [],
      "stateMutability": "nonpayable",
      "type": "function"
    },
    {
      "inputs": [],
      "name": "trustedForwarder",
      "outputs": [
        {
          "internalType": "address",
          "name": "",
          "type": "address"
        }
      ],
      "stateMutability": "view",
      "type": "function"
    },
    {
      "inputs": [],
      "name": "versionPaymaster",
      "outputs": [
        {
          "internalType": "string",
          "name": "",
          "type": "string"
        }
      ],
      "stateMutability": "view",
      "type": "function"
    },
    {
      "inputs": [
        {
          "internalType": "address",
          "name": "token",
          "type": "address"
        },
        {
          "internalType": "bool",
          "name": "whitelist",
          "type": "bool"
        }
      ],
      "name": "whitelistToken",
      "outputs": [],
      "stateMutability": "nonpayable",
      "type": "function"
    },
    {
      "inputs": [
        {
          "internalType": "uint256",
          "name": "amount",
          "type": "uint256"
        },
        {
          "internalType": "address payable",
          "name": "target",
          "type": "address"
        }
      ],
      "name": "withdrawRelayHubDepositTo",
      "outputs": [],
      "stateMutability": "nonpayable",
      "type": "function"
    },
    {
      "stateMutability": "payable",
      "type": "receive"
    }
  ],
  "bytecode": "0x60a06040526201388060035562061a80600455670b1a2bc2ec5000006005553480156200002b57600080fd5b506040516200455838038062004558833981810160405281019062000051919062000432565b62000071620000656200011a60201b60201c565b6200012260201b60201c565b8473ffffffffffffffffffffffffffffffffffffffff1660808173ffffffffffffffffffffffffffffffffffffffff168152505082600860006101000a81548173ffffffffffffffffffffffffffffffffffffffff021916908373ffffffffffffffffffffffffffffffffffffffff16021790555081600681905550620000fe84620001e660201b60201c565b6200010f816200023a60201b60201c565b50505050506200053d565b600033905090565b60008060009054906101000a900473ffffffffffffffffffffffffffffffffffffffff169050816000806101000a81548173ffffffffffffffffffffffffffffffffffffffff021916908373ffffffffffffffffffffffffffffffffffffffff1602179055508173ffffffffffffffffffffffffffffffffffffffff168173ffffffffffffffffffffffffffffffffffffffff167f8be0079c531659141344cd1fd0a4f28419497f9722a3daafe3b4186f6b6457e060405160405180910390a35050565b620001f66200028e60201b60201c565b80600260006101000a81548173ffffffffffffffffffffffffffffffffffffffff021916908373ffffffffffffffffffffffffffffffffffffffff16021790555050565b6200024a6200028e60201b60201c565b80600160006101000a81548173ffffffffffffffffffffffffffffffffffffffff021916908373ffffffffffffffffffffffffffffffffffffffff16021790555050565b6200029e6200011a60201b60201c565b73ffffffffffffffffffffffffffffffffffffffff16620002c46200031f60201b60201c565b73ffffffffffffffffffffffffffffffffffffffff16146200031d576040517f08c379a000000000000000000000000000000000000000000000000000000000815260040162000314906200051b565b60405180910390fd5b565b60008060009054906101000a900473ffffffffffffffffffffffffffffffffffffffff16905090565b600080fd5b600073ffffffffffffffffffffffffffffffffffffffff82169050919050565b60006200037a826200034d565b9050919050565b6200038c816200036d565b81146200039857600080fd5b50565b600081519050620003ac8162000381565b92915050565b6000819050919050565b620003c781620003b2565b8114620003d357600080fd5b50565b600081519050620003e781620003bc565b92915050565b6000620003fa826200036d565b9050919050565b6200040c81620003ed565b81146200041857600080fd5b50565b6000815190506200042c8162000401565b92915050565b600080600080600060a0868803121562000451576200045062000348565b5b600062000461888289016200039b565b955050602062000474888289016200039b565b945050604062000487888289016200039b565b93505060606200049a88828901620003d6565b9250506080620004ad888289016200041b565b9150509295509295909350565b600082825260208201905092915050565b7f4f776e61626c653a2063616c6c6572206973206e6f7420746865206f776e6572600082015250565b600062000503602083620004ba565b91506200051082620004cb565b602082019050919050565b600060208201905081810360008301526200053681620004f4565b9050919050565b608051613ff86200056060003960008181611057015261155d0152613ff86000f3fe6080604052600436106101fc5760003560e01c8063ad02b07d1161010d578063be37757a116100a0578063d4b839921161006f578063d4b83992146107fb578063da74222814610826578063df463a661461084f578063f2fde38b1461087a578063f9c002f7146108a35761031d565b8063be37757a14610765578063c4ae316814610790578063c5bb8758146107a7578063c91d956c146107d25761031d565b8063b039a88f116100dc578063b039a88f146106a7578063b5af090f146106d2578063b90b41cf1461070f578063bbdaa3c91461073a5761031d565b8063ad02b07d146105fe578063ad12e50e1461062a578063ad80e45114610655578063ae4f51cb1461067e5761031d565b8063715018a6116101905780637bb052641161015f5780637bb052641461052b5780637da0a877146105545780638da5cb5b1461057f578063921276ea146105aa578063a5dcd07b146105d55761031d565b8063715018a61461049757806374e861d6146104ae57806376fa01c3146104d9578063776d1a01146105025761031d565b80635c5e3db1116101cc5780635c5e3db1146103dd57806369fe0e2d146104085780636a326ab1146104315780636a8294181461045a5761031d565b8062be5dd4146103225780630ffb1d8b146103605780632afe31c1146103895780632d14c4b7146103b45761031d565b3661031d57600073ffffffffffffffffffffffffffffffffffffffff16600160009054906101000a900473ffffffffffffffffffffffffffffffffffffffff1673ffffffffffffffffffffffffffffffffffffffff1603610292576040517f08c379a00000000000000000000000000000000000000000000000000000000081526004016102899061228a565b60405180910390fd5b600160009054906101000a900473ffffffffffffffffffffffffffffffffffffffff1673ffffffffffffffffffffffffffffffffffffffff1663aa67c91934306040518363ffffffff1660e01b81526004016102ee91906122eb565b6000604051808303818588803b15801561030757600080fd5b505af115801561031b573d6000803e3d6000fd5b005b600080fd5b34801561032e57600080fd5b50610349600480360381019061034491906123d9565b6108ce565b604051610357929190612550565b60405180910390f35b34801561036c57600080fd5b50610387600480360381019061038291906125d8565b611276565b005b34801561039557600080fd5b5061039e611348565b6040516103ab9190612627565b60405180910390f35b3480156103c057600080fd5b506103db60048036038101906103d69190612680565b6113eb565b005b3480156103e957600080fd5b506103f2611485565b6040516103ff9190612627565b60405180910390f35b34801561041457600080fd5b5061042f600480360381019061042a91906126c0565b61148b565b005b34801561043d57600080fd5b50610458600480360381019061045391906126ed565b61149d565b005b34801561046657600080fd5b50610481600480360381019061047c9190612858565b611558565b60405161048e9190612627565b60405180910390f35b3480156104a357600080fd5b506104ac611623565b005b3480156104ba57600080fd5b506104c3611637565b6040516104d091906122eb565b60405180910390f35b3480156104e557600080fd5b5061050060048036038101906104fb91906128d4565b611661565b005b34801561050e57600080fd5b50610529600480360381019061052491906126ed565b61193b565b005b34801561053757600080fd5b50610552600480360381019061054d91906129b6565b611987565b005b34801561056057600080fd5b506105696119d3565b60405161057691906122eb565b60405180910390f35b34801561058b57600080fd5b506105946119fd565b6040516105a191906122eb565b60405180910390f35b3480156105b657600080fd5b506105bf611a26565b6040516105cc9190612a27565b60405180910390f35b3480156105e157600080fd5b506105fc60048036038101906105f79190612a49565b611a63565b005b34801561060a57600080fd5b50610613611b20565b604051610621929190612a92565b60405180910390f35b34801561063657600080fd5b5061063f611b51565b60405161064c9190612627565b60405180910390f35b34801561066157600080fd5b5061067c600480360381019061067791906126c0565b611b57565b005b34801561068a57600080fd5b506106a560048036038101906106a091906126c0565b611b69565b005b3480156106b357600080fd5b506106bc611b7b565b6040516106c99190612b1f565b60405180910390f35b3480156106de57600080fd5b506106f960048036038101906106f491906126ed565b611bc1565b6040516107069190612b3a565b60405180910390f35b34801561071b57600080fd5b50610724611c17565b6040516107319190612627565b60405180910390f35b34801561074657600080fd5b5061074f611c1d565b60405161075c9190612627565b60405180910390f35b34801561077157600080fd5b5061077a611c24565b6040516107879190612627565b60405180910390f35b34801561079c57600080fd5b506107a5611c2a565b005b3480156107b357600080fd5b506107bc611c5e565b6040516107c99190612627565b60405180910390f35b3480156107de57600080fd5b506107f960048036038101906107f491906126c0565b611c64565b005b34801561080757600080fd5b50610810611cb9565b60405161081d91906122eb565b60405180910390f35b34801561083257600080fd5b5061084d600480360381019061084891906126ed565b611cdf565b005b34801561085b57600080fd5b50610864611d2b565b6040516108719190612627565b60405180910390f35b34801561088657600080fd5b506108a1600480360381019061089c91906126ed565b611d3f565b005b3480156108af57600080fd5b506108b8611dc2565b6040516108c59190612627565b60405180910390f35b606060006108db88611a63565b600860149054906101000a900460ff161561092b576040517f08c379a000000000000000000000000000000000000000000000000000000000815260040161092290612ba1565b60405180910390fd5b3688806000019061093c9190612bd0565b905060008980602001906109509190612bf8565b61095990612dc6565b9050600760009054906101000a900473ffffffffffffffffffffffffffffffffffffffff1673ffffffffffffffffffffffffffffffffffffffff168260200160208101906109a791906126ed565b73ffffffffffffffffffffffffffffffffffffffff16146109fd576040517f08c379a00000000000000000000000000000000000000000000000000000000081526004016109f490612e25565b60405180910390fd5b600080838060a00190610a109190612e45565b6004908092610a2193929190612eb2565b810190610a2e9190612eed565b91509150600960008373ffffffffffffffffffffffffffffffffffffffff1673ffffffffffffffffffffffffffffffffffffffff16815260200190815260200160002060009054906101000a900460ff16610abe576040517f08c379a0000000000000000000000000000000000000000000000000000000008152600401610ab590612f79565b60405180910390fd5b6000846000016020810190610ad391906126ed565b90506000600860009054906101000a900473ffffffffffffffffffffffffffffffffffffffff1690508373ffffffffffffffffffffffffffffffffffffffff16600860009054906101000a900473ffffffffffffffffffffffffffffffffffffffff1673ffffffffffffffffffffffffffffffffffffffff1603610d0c5782600654610b5f9190612fc8565b8173ffffffffffffffffffffffffffffffffffffffff1663dd62ed3e84600760009054906101000a900473ffffffffffffffffffffffffffffffffffffffff166040518363ffffffff1660e01b8152600401610bbc92919061301e565b602060405180830381865afa158015610bd9573d6000803e3d6000fd5b505050506040513d601f19601f82011682018060405250810190610bfd919061305c565b1015610c3e576040517f08c379a0000000000000000000000000000000000000000000000000000000008152600401610c35906130d5565b60405180910390fd5b82600654610c4c9190612fc8565b8173ffffffffffffffffffffffffffffffffffffffff166370a08231846040518263ffffffff1660e01b8152600401610c8591906122eb565b602060405180830381865afa158015610ca2573d6000803e3d6000fd5b505050506040513d601f19601f82011682018060405250810190610cc6919061305c565b1015610d07576040517f08c379a0000000000000000000000000000000000000000000000000000000008152600401610cfe90613141565b60405180910390fd5b61104f565b6006548173ffffffffffffffffffffffffffffffffffffffff1663dd62ed3e84600760009054906101000a900473ffffffffffffffffffffffffffffffffffffffff166040518363ffffffff1660e01b8152600401610d6c92919061301e565b602060405180830381865afa158015610d89573d6000803e3d6000fd5b505050506040513d601f19601f82011682018060405250810190610dad919061305c565b1015610dee576040517f08c379a0000000000000000000000000000000000000000000000000000000008152600401610de5906131ad565b60405180910390fd5b6006548173ffffffffffffffffffffffffffffffffffffffff166370a08231846040518263ffffffff1660e01b8152600401610e2a91906122eb565b602060405180830381865afa158015610e47573d6000803e3d6000fd5b505050506040513d601f19601f82011682018060405250810190610e6b919061305c565b1015610eac576040517f08c379a0000000000000000000000000000000000000000000000000000000008152600401610ea390613219565b60405180910390fd5b6000849050838173ffffffffffffffffffffffffffffffffffffffff1663dd62ed3e85600760009054906101000a900473ffffffffffffffffffffffffffffffffffffffff166040518363ffffffff1660e01b8152600401610f0f92919061301e565b602060405180830381865afa158015610f2c573d6000803e3d6000fd5b505050506040513d601f19601f82011682018060405250810190610f50919061305c565b1015610f91576040517f08c379a0000000000000000000000000000000000000000000000000000000008152600401610f8890613285565b60405180910390fd5b838273ffffffffffffffffffffffffffffffffffffffff166370a08231856040518263ffffffff1660e01b8152600401610fcb91906122eb565b602060405180830381865afa158015610fe8573d6000803e3d6000fd5b505050506040513d601f19601f8201168201806040525081019061100c919061305c565b101561104d576040517f08c379a0000000000000000000000000000000000000000000000000000000008152600401611044906132f1565b60405180910390fd5b505b60006110e9857f000000000000000000000000000000000000000000000000000000000000000073ffffffffffffffffffffffffffffffffffffffff1663ad5c46486040518163ffffffff1660e01b8152600401602060405180830381865afa1580156110c0573d6000803e3d6000fd5b505050506040513d601f19601f820116820180604052508101906110e49190613326565b611dc9565b905060006110f78583611558565b90506000600160009054906101000a900473ffffffffffffffffffffffffffffffffffffffff1673ffffffffffffffffffffffffffffffffffffffff16638e53548b8d8a6040518363ffffffff1660e01b815260040161115892919061345c565b602060405180830381865afa158015611175573d6000803e3d6000fd5b505050506040513d601f19601f82011682018060405250810190611199919061305c565b90508082116111dd576040517f08c379a00000000000000000000000000000000000000000000000000000000081526004016111d4906134d8565b60405180910390fd5b60045489606001351015611226576040517f08c379a000000000000000000000000000000000000000000000000000000000815260040161121d90613544565b60405180910390fd5b88600001602081019061123991906126ed565b818360405160200161124d93929190613564565b60405160208183030381529060405260019a509a50505050505050505050965096945050505050565b61127e611ebb565b600073ffffffffffffffffffffffffffffffffffffffff168273ffffffffffffffffffffffffffffffffffffffff16036112ed576040517f08c379a00000000000000000000000000000000000000000000000000000000081526004016112e4906135e7565b60405180910390fd5b80600960008473ffffffffffffffffffffffffffffffffffffffff1673ffffffffffffffffffffffffffffffffffffffff16815260200190815260200160002060006101000a81548160ff0219169083151502179055505050565b6000600160009054906101000a900473ffffffffffffffffffffffffffffffffffffffff1673ffffffffffffffffffffffffffffffffffffffff166370a08231306040518263ffffffff1660e01b81526004016113a591906122eb565b602060405180830381865afa1580156113c2573d6000803e3d6000fd5b505050506040513d601f19601f820116820180604052508101906113e6919061305c565b905090565b6113f3611ebb565b600160009054906101000a900473ffffffffffffffffffffffffffffffffffffffff1673ffffffffffffffffffffffffffffffffffffffff1662f714ce83836040518363ffffffff1660e01b815260040161144f929190613616565b600060405180830381600087803b15801561146957600080fd5b505af115801561147d573d6000803e3d6000fd5b505050505050565b61290481565b611493611ebb565b8060068190555050565b6114a5611ebb565b600073ffffffffffffffffffffffffffffffffffffffff168173ffffffffffffffffffffffffffffffffffffffff1603611514576040517f08c379a000000000000000000000000000000000000000000000000000000000815260040161150b9061368b565b60405180910390fd5b80600860006101000a81548173ffffffffffffffffffffffffffffffffffffffff021916908373ffffffffffffffffffffffffffffffffffffffff16021790555050565b6000807f000000000000000000000000000000000000000000000000000000000000000073ffffffffffffffffffffffffffffffffffffffff1663d06ca61f85856040518363ffffffff1660e01b81526004016115b692919061375a565b600060405180830381865afa1580156115d3573d6000803e3d6000fd5b505050506040513d6000823e3d601f19601f820116820180604052508101906115fc919061384d565b60018151811061160f5761160e613896565b5b602002602001015190508091505092915050565b61162b611ebb565b6116356000611f39565b565b6000600160009054906101000a900473ffffffffffffffffffffffffffffffffffffffff16905090565b611669611637565b73ffffffffffffffffffffffffffffffffffffffff163373ffffffffffffffffffffffffffffffffffffffff16146116d6576040517f08c379a00000000000000000000000000000000000000000000000000000000081526004016116cd90613911565b60405180910390fd5b82611716576040517f08c379a000000000000000000000000000000000000000000000000000000000815260040161170d9061397d565b60405180910390fd5b6000806000878781019061172a919061399d565b9250925092506000600160009054906101000a900473ffffffffffffffffffffffffffffffffffffffff16905060008173ffffffffffffffffffffffffffffffffffffffff16638e53548b600354896117839190612fc8565b886040518363ffffffff1660e01b81526004016117a1929190613baf565b602060405180830381865afa1580156117be573d6000803e3d6000fd5b505050506040513d601f19601f820116820180604052508101906117e2919061305c565b90506000600160009054906101000a900473ffffffffffffffffffffffffffffffffffffffff1673ffffffffffffffffffffffffffffffffffffffff166370a08231306040518263ffffffff1660e01b815260040161184191906122eb565b602060405180830381865afa15801561185e573d6000803e3d6000fd5b505050506040513d601f19601f82011682018060405250810190611882919061305c565b90506000829050600081866118979190613bdf565b905060055481846118a89190613bdf565b10156118c05786915081866118bd9190613bdf565b90505b8473ffffffffffffffffffffffffffffffffffffffff1662f714ce828a6040518363ffffffff1660e01b81526004016118fa929190613616565b600060405180830381600087803b15801561191457600080fd5b505af1158015611928573d6000803e3d6000fd5b5050505050505050505050505050505050565b611943611ebb565b80600760006101000a81548173ffffffffffffffffffffffffffffffffffffffff021916908373ffffffffffffffffffffffffffffffffffffffff16021790555050565b61198f611ebb565b80600160006101000a81548173ffffffffffffffffffffffffffffffffffffffff021916908373ffffffffffffffffffffffffffffffffffffffff16021790555050565b6000600260009054906101000a900473ffffffffffffffffffffffffffffffffffffffff16905090565b60008060009054906101000a900473ffffffffffffffffffffffffffffffffffffffff16905090565b60606040518060400160405280601e81526020017f322e322e302b6f70656e67736e2e746f6b656e2e697061796d61737465720000815250905090565b808060200190611a739190612bf8565b60a0016020810190611a8591906126ed565b73ffffffffffffffffffffffffffffffffffffffff16600260009054906101000a900473ffffffffffffffffffffffffffffffffffffffff1673ffffffffffffffffffffffffffffffffffffffff1614611b14576040517f08c379a0000000000000000000000000000000000000000000000000000000008152600401611b0b90613c5f565b60405180910390fd5b611b1d81611ffd565b50565b600080600860009054906101000a900473ffffffffffffffffffffffffffffffffffffffff16600654915091509091565b60035481565b611b5f611ebb565b8060048190555050565b611b71611ebb565b8060038190555050565b611b83612205565b604051806080016040528061c350620186a0611b9f9190612fc8565b8152602001620186a081526020016201adb08152602001612904815250905090565b6000600960008373ffffffffffffffffffffffffffffffffffffffff1673ffffffffffffffffffffffffffffffffffffffff16815260200190815260200160002060009054906101000a900460ff169050919050565b61c35081565b6201adb081565b60045481565b611c32611ebb565b600860149054906101000a900460ff1615600860146101000a81548160ff021916908315150217905550565b60055481565b611c6c611ebb565b60008111611caf576040517f08c379a0000000000000000000000000000000000000000000000000000000008152600401611ca690613ccb565b60405180910390fd5b8060058190555050565b600760009054906101000a900473ffffffffffffffffffffffffffffffffffffffff1681565b611ce7611ebb565b80600260006101000a81548173ffffffffffffffffffffffffffffffffffffffff021916908373ffffffffffffffffffffffffffffffffffffffff16021790555050565b61c350620186a0611d3c9190612fc8565b81565b611d47611ebb565b600073ffffffffffffffffffffffffffffffffffffffff168173ffffffffffffffffffffffffffffffffffffffff1603611db6576040517f08c379a0000000000000000000000000000000000000000000000000000000008152600401611dad90613d5d565b60405180910390fd5b611dbf81611f39565b50565b620186a081565b6060600267ffffffffffffffff811115611de657611de561271a565b5b604051908082528060200260200182016040528015611e145781602001602082028036833780820191505090505b5090508281600081518110611e2c57611e2b613896565b5b602002602001019073ffffffffffffffffffffffffffffffffffffffff16908173ffffffffffffffffffffffffffffffffffffffff16815250508181600181518110611e7b57611e7a613896565b5b602002602001019073ffffffffffffffffffffffffffffffffffffffff16908173ffffffffffffffffffffffffffffffffffffffff168152505092915050565b611ec36121fd565b73ffffffffffffffffffffffffffffffffffffffff16611ee16119fd565b73ffffffffffffffffffffffffffffffffffffffff1614611f37576040517f08c379a0000000000000000000000000000000000000000000000000000000008152600401611f2e90613dc9565b60405180910390fd5b565b60008060009054906101000a900473ffffffffffffffffffffffffffffffffffffffff169050816000806101000a81548173ffffffffffffffffffffffffffffffffffffffff021916908373ffffffffffffffffffffffffffffffffffffffff1602179055508173ffffffffffffffffffffffffffffffffffffffff168173ffffffffffffffffffffffffffffffffffffffff167f8be0079c531659141344cd1fd0a4f28419497f9722a3daafe3b4186f6b6457e060405160405180910390a35050565b6000808280600001906120109190612bd0565b602001602081019061202291906126ed565b73ffffffffffffffffffffffffffffffffffffffff1663572b6c0560e01b8480602001906120509190612bf8565b60a001602081019061206291906126ed565b60405160240161207291906122eb565b604051602081830303815290604052907bffffffffffffffffffffffffffffffffffffffffffffffffffffffff19166020820180517bffffffffffffffffffffffffffffffffffffffffffffffffffffffff83818316178352505050506040516120dc9190613e25565b600060405180830381855afa9150503d8060008114612117576040519150601f19603f3d011682016040523d82523d6000602084013e61211c565b606091505b509150915081612161576040517f08c379a000000000000000000000000000000000000000000000000000000000815260040161215890613e88565b60405180910390fd5b60208151146121a5576040517f08c379a000000000000000000000000000000000000000000000000000000000815260040161219c90613ef4565b60405180910390fd5b808060200190518101906121b99190613f29565b6121f8576040517f08c379a00000000000000000000000000000000000000000000000000000000081526004016121ef90613fa2565b60405180910390fd5b505050565b600033905090565b6040518060800160405280600081526020016000815260200160008152602001600081525090565b600082825260208201905092915050565b7f72656c6179206875622061646472657373206e6f742073657400000000000000600082015250565b600061227460198361222d565b915061227f8261223e565b602082019050919050565b600060208201905081810360008301526122a381612267565b9050919050565b600073ffffffffffffffffffffffffffffffffffffffff82169050919050565b60006122d5826122aa565b9050919050565b6122e5816122ca565b82525050565b600060208201905061230060008301846122dc565b92915050565b6000604051905090565b600080fd5b600080fd5b600080fd5b6000604082840312156123355761233461231a565b5b81905092915050565b600080fd5b600080fd5b600080fd5b60008083601f8401126123635761236261233e565b5b8235905067ffffffffffffffff8111156123805761237f612343565b5b60208301915083600182028301111561239c5761239b612348565b5b9250929050565b6000819050919050565b6123b6816123a3565b81146123c157600080fd5b50565b6000813590506123d3816123ad565b92915050565b600080600080600080608087890312156123f6576123f5612310565b5b600087013567ffffffffffffffff81111561241457612413612315565b5b61242089828a0161231f565b965050602087013567ffffffffffffffff81111561244157612440612315565b5b61244d89828a0161234d565b9550955050604087013567ffffffffffffffff8111156124705761246f612315565b5b61247c89828a0161234d565b9350935050606061248f89828a016123c4565b9150509295509295509295565b600081519050919050565b600082825260208201905092915050565b60005b838110156124d65780820151818401526020810190506124bb565b838111156124e5576000848401525b50505050565b6000601f19601f8301169050919050565b60006125078261249c565b61251181856124a7565b93506125218185602086016124b8565b61252a816124eb565b840191505092915050565b60008115159050919050565b61254a81612535565b82525050565b6000604082019050818103600083015261256a81856124fc565b90506125796020830184612541565b9392505050565b612589816122ca565b811461259457600080fd5b50565b6000813590506125a681612580565b92915050565b6125b581612535565b81146125c057600080fd5b50565b6000813590506125d2816125ac565b92915050565b600080604083850312156125ef576125ee612310565b5b60006125fd85828601612597565b925050602061260e858286016125c3565b9150509250929050565b612621816123a3565b82525050565b600060208201905061263c6000830184612618565b92915050565b600061264d826122aa565b9050919050565b61265d81612642565b811461266857600080fd5b50565b60008135905061267a81612654565b92915050565b6000806040838503121561269757612696612310565b5b60006126a5858286016123c4565b92505060206126b68582860161266b565b9150509250929050565b6000602082840312156126d6576126d5612310565b5b60006126e4848285016123c4565b91505092915050565b60006020828403121561270357612702612310565b5b600061271184828501612597565b91505092915050565b7f4e487b7100000000000000000000000000000000000000000000000000000000600052604160045260246000fd5b612752826124eb565b810181811067ffffffffffffffff821117156127715761277061271a565b5b80604052505050565b6000612784612306565b90506127908282612749565b919050565b600067ffffffffffffffff8211156127b0576127af61271a565b5b602082029050602081019050919050565b60006127d46127cf84612795565b61277a565b905080838252602082019050602084028301858111156127f7576127f6612348565b5b835b81811015612820578061280c8882612597565b8452602084019350506020810190506127f9565b5050509392505050565b600082601f83011261283f5761283e61233e565b5b813561284f8482602086016127c1565b91505092915050565b6000806040838503121561286f5761286e612310565b5b600061287d858286016123c4565b925050602083013567ffffffffffffffff81111561289e5761289d612315565b5b6128aa8582860161282a565b9150509250929050565b600061010082840312156128cb576128ca61231a565b5b81905092915050565b6000806000806000608086880312156128f0576128ef612310565b5b600086013567ffffffffffffffff81111561290e5761290d612315565b5b61291a8882890161234d565b9550955050602061292d888289016125c3565b935050604061293e888289016123c4565b925050606086013567ffffffffffffffff81111561295f5761295e612315565b5b61296b888289016128b4565b9150509295509295909350565b6000612983826122ca565b9050919050565b61299381612978565b811461299e57600080fd5b50565b6000813590506129b08161298a565b92915050565b6000602082840312156129cc576129cb612310565b5b60006129da848285016129a1565b91505092915050565b600081519050919050565b60006129f9826129e3565b612a03818561222d565b9350612a138185602086016124b8565b612a1c816124eb565b840191505092915050565b60006020820190508181036000830152612a4181846129ee565b905092915050565b600060208284031215612a5f57612a5e612310565b5b600082013567ffffffffffffffff811115612a7d57612a7c612315565b5b612a898482850161231f565b91505092915050565b6000604082019050612aa760008301856122dc565b612ab46020830184612618565b9392505050565b612ac4816123a3565b82525050565b608082016000820151612ae06000850182612abb565b506020820151612af36020850182612abb565b506040820151612b066040850182612abb565b506060820151612b196060850182612abb565b50505050565b6000608082019050612b346000830184612aca565b92915050565b6000602082019050612b4f6000830184612541565b92915050565b7f5377617020706175736564000000000000000000000000000000000000000000600082015250565b6000612b8b600b8361222d565b9150612b9682612b55565b602082019050919050565b60006020820190508181036000830152612bba81612b7e565b9050919050565b600080fd5b600080fd5b600080fd5b60008235600160e003833603038112612bec57612beb612bc1565b5b80830191505092915050565b60008235600161010003833603038112612c1557612c14612bc1565b5b80830191505092915050565b600080fd5b600080fd5b600080fd5b600067ffffffffffffffff821115612c4b57612c4a61271a565b5b612c54826124eb565b9050602081019050919050565b82818337600083830152505050565b6000612c83612c7e84612c30565b61277a565b905082815260208101848484011115612c9f57612c9e612c2b565b5b612caa848285612c61565b509392505050565b600082601f830112612cc757612cc661233e565b5b8135612cd7848260208601612c70565b91505092915050565b60006101008284031215612cf757612cf6612c21565b5b612d0261010061277a565b90506000612d12848285016123c4565b6000830152506020612d26848285016123c4565b6020830152506040612d3a848285016123c4565b6040830152506060612d4e84828501612597565b6060830152506080612d6284828501612597565b60808301525060a0612d7684828501612597565b60a08301525060c082013567ffffffffffffffff811115612d9a57612d99612c26565b5b612da684828501612cb2565b60c08301525060e0612dba848285016123c4565b60e08301525092915050565b6000612dd23683612ce0565b9050919050565b7f556e6b6e6f776e20746172676574000000000000000000000000000000000000600082015250565b6000612e0f600e8361222d565b9150612e1a82612dd9565b602082019050919050565b60006020820190508181036000830152612e3e81612e02565b9050919050565b60008083356001602003843603038112612e6257612e61612bc1565b5b80840192508235915067ffffffffffffffff821115612e8457612e83612bc6565b5b602083019250600182023603831315612ea057612e9f612bcb565b5b509250929050565b600080fd5b600080fd5b60008085851115612ec657612ec5612ea8565b5b83861115612ed757612ed6612ead565b5b6001850283019150848603905094509492505050565b60008060408385031215612f0457612f03612310565b5b6000612f128582860161266b565b9250506020612f23858286016123c4565b9150509250929050565b7f546f6b656e206e6f742077686974656c69737465640000000000000000000000600082015250565b6000612f6360158361222d565b9150612f6e82612f2d565b602082019050919050565b60006020820190508181036000830152612f9281612f56565b9050919050565b7f4e487b7100000000000000000000000000000000000000000000000000000000600052601160045260246000fd5b6000612fd3826123a3565b9150612fde836123a3565b9250827fffffffffffffffffffffffffffffffffffffffffffffffffffffffffffffffff0382111561301357613012612f99565b5b828201905092915050565b600060408201905061303360008301856122dc565b61304060208301846122dc565b9392505050565b600081519050613056816123ad565b92915050565b60006020828403121561307257613071612310565b5b600061308084828501613047565b91505092915050565b7f4665652b616d6f756e743a204e6f7420656e6f75676820616c6c6f77616e6365600082015250565b60006130bf60208361222d565b91506130ca82613089565b602082019050919050565b600060208201905081810360008301526130ee816130b2565b9050919050565b7f4665652b616d6f756e743a204e6f7420656e6f7567682062616c616e63650000600082015250565b600061312b601e8361222d565b9150613136826130f5565b602082019050919050565b6000602082019050818103600083015261315a8161311e565b9050919050565b7f4665653a204e6f7420656e6f75676820616c6c6f77616e636500000000000000600082015250565b600061319760198361222d565b91506131a282613161565b602082019050919050565b600060208201905081810360008301526131c68161318a565b9050919050565b7f4665653a204e6f7420656e6f7567682062616c616e6365000000000000000000600082015250565b600061320360178361222d565b915061320e826131cd565b602082019050919050565b60006020820190508181036000830152613232816131f6565b9050919050565b7f4e6f7420656e6f75676820616c6c6f77616e6365000000000000000000000000600082015250565b600061326f60148361222d565b915061327a82613239565b602082019050919050565b6000602082019050818103600083015261329e81613262565b9050919050565b7f4e6f7420656e6f7567682062616c616e63650000000000000000000000000000600082015250565b60006132db60128361222d565b91506132e6826132a5565b602082019050919050565b6000602082019050818103600083015261330a816132ce565b9050919050565b60008151905061332081612580565b92915050565b60006020828403121561333c5761333b612310565b5b600061334a84828501613311565b91505092915050565b61335c816122ca565b82525050565b600082825260208201905092915050565b600061337e8261249c565b6133888185613362565b93506133988185602086016124b8565b6133a1816124eb565b840191505092915050565b6000610100830160008301516133c56000860182612abb565b5060208301516133d86020860182612abb565b5060408301516133eb6040860182612abb565b5060608301516133fe6060860182613353565b5060808301516134116080860182613353565b5060a083015161342460a0860182613353565b5060c083015184820360c086015261343c8282613373565b91505060e083015161345160e0860182612abb565b508091505092915050565b60006040820190506134716000830185612618565b818103602083015261348381846133ac565b90509392505050565b7f4e6f7420656e6f75676820746f2070617920666f722074780000000000000000600082015250565b60006134c260188361222d565b91506134cd8261348c565b602082019050919050565b600060208201905081810360008301526134f1816134b5565b9050919050565b7f4e6f7420656e6f75676820676173000000000000000000000000000000000000600082015250565b600061352e600e8361222d565b9150613539826134f8565b602082019050919050565b6000602082019050818103600083015261355d81613521565b9050919050565b600060608201905061357960008301866122dc565b6135866020830185612618565b6135936040830184612618565b949350505050565b7f546f6b656e206164647265737320697320300000000000000000000000000000600082015250565b60006135d160128361222d565b91506135dc8261359b565b602082019050919050565b60006020820190508181036000830152613600816135c4565b9050919050565b61361081612642565b82525050565b600060408201905061362b6000830185612618565b6136386020830184613607565b9392505050565b7f57726f6e67205061796d656e7420546f6b656e00000000000000000000000000600082015250565b600061367560138361222d565b91506136808261363f565b602082019050919050565b600060208201905081810360008301526136a481613668565b9050919050565b600081519050919050565b600082825260208201905092915050565b6000819050602082019050919050565b60006136e38383613353565b60208301905092915050565b6000602082019050919050565b6000613707826136ab565b61371181856136b6565b935061371c836136c7565b8060005b8381101561374d57815161373488826136d7565b975061373f836136ef565b925050600181019050613720565b5085935050505092915050565b600060408201905061376f6000830185612618565b818103602083015261378181846136fc565b90509392505050565b600067ffffffffffffffff8211156137a5576137a461271a565b5b602082029050602081019050919050565b60006137c96137c48461378a565b61277a565b905080838252602082019050602084028301858111156137ec576137eb612348565b5b835b8181101561381557806138018882613047565b8452602084019350506020810190506137ee565b5050509392505050565b600082601f8301126138345761383361233e565b5b81516138448482602086016137b6565b91505092915050565b60006020828403121561386357613862612310565b5b600082015167ffffffffffffffff81111561388157613880612315565b5b61388d8482850161381f565b91505092915050565b7f4e487b7100000000000000000000000000000000000000000000000000000000600052603260045260246000fd5b7f63616e206f6e6c792062652063616c6c65642062792052656c61794875620000600082015250565b60006138fb601e8361222d565b9150613906826138c5565b602082019050919050565b6000602082019050818103600083015261392a816138ee565b9050919050565b7f4e6f207375636365737300000000000000000000000000000000000000000000600082015250565b6000613967600a8361222d565b915061397282613931565b602082019050919050565b600060208201905081810360008301526139968161395a565b9050919050565b6000806000606084860312156139b6576139b5612310565b5b60006139c48682870161266b565b93505060206139d5868287016123c4565b92505060406139e6868287016123c4565b9150509250925092565b60006139ff60208401846123c4565b905092915050565b6000613a166020840184612597565b905092915050565b600080fd5b600080fd5b600080fd5b60008083356001602003843603038112613a4a57613a49613a28565b5b83810192508235915060208301925067ffffffffffffffff821115613a7257613a71613a1e565b5b600182023603841315613a8857613a87613a23565b5b509250929050565b6000613a9c8385613362565b9350613aa9838584612c61565b613ab2836124eb565b840190509392505050565b60006101008301613ad160008401846139f0565b613ade6000860182612abb565b50613aec60208401846139f0565b613af96020860182612abb565b50613b0760408401846139f0565b613b146040860182612abb565b50613b226060840184613a07565b613b2f6060860182613353565b50613b3d6080840184613a07565b613b4a6080860182613353565b50613b5860a0840184613a07565b613b6560a0860182613353565b50613b7360c0840184613a2d565b85830360c0870152613b86838284613a90565b92505050613b9760e08401846139f0565b613ba460e0860182612abb565b508091505092915050565b6000604082019050613bc46000830185612618565b8181036020830152613bd68184613abd565b90509392505050565b6000613bea826123a3565b9150613bf5836123a3565b925082821015613c0857613c07612f99565b5b828203905092915050565b7f466f72776172646572206973206e6f7420747275737465640000000000000000600082015250565b6000613c4960188361222d565b9150613c5482613c13565b602082019050919050565b60006020820190508181036000830152613c7881613c3c565b9050919050565b7f57726f6e67206d696e2062616c616e6365000000000000000000000000000000600082015250565b6000613cb560118361222d565b9150613cc082613c7f565b602082019050919050565b60006020820190508181036000830152613ce481613ca8565b9050919050565b7f4f776e61626c653a206e6577206f776e657220697320746865207a65726f206160008201527f6464726573730000000000000000000000000000000000000000000000000000602082015250565b6000613d4760268361222d565b9150613d5282613ceb565b604082019050919050565b60006020820190508181036000830152613d7681613d3a565b9050919050565b7f4f776e61626c653a2063616c6c6572206973206e6f7420746865206f776e6572600082015250565b6000613db360208361222d565b9150613dbe82613d7d565b602082019050919050565b60006020820190508181036000830152613de281613da6565b9050919050565b600081905092915050565b6000613dff8261249c565b613e098185613de9565b9350613e198185602086016124b8565b80840191505092915050565b6000613e318284613df4565b915081905092915050565b7f697354727573746564466f727761726465723a20726576657274656400000000600082015250565b6000613e72601c8361222d565b9150613e7d82613e3c565b602082019050919050565b60006020820190508181036000830152613ea181613e65565b9050919050565b7f697354727573746564466f727761726465723a2062616420726573706f6e7365600082015250565b6000613ede60208361222d565b9150613ee982613ea8565b602082019050919050565b60006020820190508181036000830152613f0d81613ed1565b9050919050565b600081519050613f23816125ac565b92915050565b600060208284031215613f3f57613f3e612310565b5b6000613f4d84828501613f14565b91505092915050565b7f696e76616c696420666f7277617264657220666f7220726563697069656e7400600082015250565b6000613f8c601f8361222d565b9150613f9782613f56565b602082019050919050565b60006020820190508181036000830152613fbb81613f7f565b905091905056fea2646970667358221220210b401e7864f800d193f50c378824a320093824fcc07f7f1d2612a6a35e435964736f6c634300080d0033",
  "linkReferences": {},
  "deployedLinkReferences": {}
}