{
  "_format": "hh-sol-artifact-1",
  "contractName": "TokenSwap",
  "sourceName": "contracts/TokenSwap.sol",
  "abi": [
    {
      "inputs": [
        {
          "internalType": "address",
          "name": "_forwarder",
          "type": "address"
        },
        {
          "internalType": "address",
          "name": "uniswapRouter",
          "type": "address"
        },
        {
          "internalType": "address payable",
          "name": "tokenPaymaster",
          "type": "address"
        }
      ],
      "stateMutability": "nonpayable",
      "type": "constructor"
    },
    {
      "anonymous": false,
      "inputs": [
        {
          "indexed": false,
          "internalType": "uint256",
          "name": "value",
          "type": "uint256"
        },
        {
          "indexed": false,
          "internalType": "address",
          "name": "sender",
          "type": "address"
        }
      ],
      "name": "Received",
      "type": "event"
    },
    {
      "inputs": [
        {
          "internalType": "address",
          "name": "forwarder",
          "type": "address"
        }
      ],
      "name": "isTrustedForwarder",
      "outputs": [
        {
          "internalType": "bool",
          "name": "",
          "type": "bool"
        }
      ],
      "stateMutability": "view",
      "type": "function"
    },
    {
      "inputs": [
        {
          "internalType": "address",
          "name": "token",
          "type": "address"
        },
        {
          "internalType": "uint256",
          "name": "amountIn",
          "type": "uint256"
        }
      ],
      "name": "swapTokensForEth",
      "outputs": [],
      "stateMutability": "nonpayable",
      "type": "function"
    },
    {
      "inputs": [],
      "name": "trustedForwarder",
      "outputs": [
        {
          "internalType": "address",
          "name": "",
          "type": "address"
        }
      ],
      "stateMutability": "view",
      "type": "function"
    },
    {
      "inputs": [],
      "name": "versionRecipient",
      "outputs": [
        {
          "internalType": "string",
          "name": "",
          "type": "string"
        }
      ],
      "stateMutability": "pure",
      "type": "function"
    },
    {
      "stateMutability": "payable",
      "type": "receive"
    }
  ],
  "bytecode": "0x60a06040523480156200001157600080fd5b506040516200119e3803806200119e8339818101604052810190620000379190620001b8565b6200004883620000c660201b60201c565b8173ffffffffffffffffffffffffffffffffffffffff1660808173ffffffffffffffffffffffffffffffffffffffff168152505080600160006101000a81548173ffffffffffffffffffffffffffffffffffffffff021916908373ffffffffffffffffffffffffffffffffffffffff16021790555050505062000214565b806000806101000a81548173ffffffffffffffffffffffffffffffffffffffff021916908373ffffffffffffffffffffffffffffffffffffffff16021790555050565b600080fd5b600073ffffffffffffffffffffffffffffffffffffffff82169050919050565b60006200013b826200010e565b9050919050565b6200014d816200012e565b81146200015957600080fd5b50565b6000815190506200016d8162000142565b92915050565b600062000180826200010e565b9050919050565b620001928162000173565b81146200019e57600080fd5b50565b600081519050620001b28162000187565b92915050565b600080600060608486031215620001d457620001d362000109565b5b6000620001e4868287016200015c565b9350506020620001f7868287016200015c565b92505060406200020a86828701620001a1565b9150509250925092565b608051610f606200023e600039600081816103ec0152818161046f01526104b20152610f606000f3fe6080604052600436106100435760003560e01c8063486ff0cd1461019757806356feb11b146101c2578063572b6c05146101eb5780637da0a8771461022857610192565b366101925760003490506000600160009054906101000a900473ffffffffffffffffffffffffffffffffffffffff1673ffffffffffffffffffffffffffffffffffffffff1682604051610095906108b7565b60006040518083038185875af1925050503d80600081146100d2576040519150601f19603f3d011682016040523d82523d6000602084013e6100d7565b606091505b505090508061011b576040517f08c379a000000000000000000000000000000000000000000000000000000000815260040161011290610929565b60405180910390fd5b7f8863e458255c600ae3e61be347822f3ee57088c8538b68b5dd2357e682e59e1934600260009054906101000a900473ffffffffffffffffffffffffffffffffffffffff1660405161016e9291906109a3565b60405180910390a16000600260146101000a81548160ff0219169083151502179055005b600080fd5b3480156101a357600080fd5b506101ac610253565b6040516101b99190610a54565b60405180910390f35b3480156101ce57600080fd5b506101e960048036038101906101e49190610ad3565b610273565b005b3480156101f757600080fd5b50610212600480360381019061020d9190610b13565b6106db565b60405161021f9190610b5b565b60405180910390f35b34801561023457600080fd5b5061023d610734565b60405161024a9190610b76565b60405180910390f35b6060604051806060016040528060228152602001610f0960229139905090565b600260149054906101000a900460ff16156102c3576040517f08c379a00000000000000000000000000000000000000000000000000000000081526004016102ba90610bdd565b60405180910390fd5b6001600260146101000a81548160ff0219169083151502179055506102e661075d565b600260006101000a81548173ffffffffffffffffffffffffffffffffffffffff021916908373ffffffffffffffffffffffffffffffffffffffff16021790555060008290508073ffffffffffffffffffffffffffffffffffffffff166323b872dd600260009054906101000a900473ffffffffffffffffffffffffffffffffffffffff1630856040518463ffffffff1660e01b815260040161038a93929190610bfd565b6020604051808303816000875af11580156103a9573d6000803e3d6000fd5b505050506040513d601f19601f820116820180604052508101906103cd9190610c60565b508073ffffffffffffffffffffffffffffffffffffffff1663095ea7b37f0000000000000000000000000000000000000000000000000000000000000000846040518363ffffffff1660e01b8152600401610429929190610c8d565b6020604051808303816000875af1158015610448573d6000803e3d6000fd5b505050506040513d601f19601f8201168201806040525081019061046c9190610c60565b507f000000000000000000000000000000000000000000000000000000000000000073ffffffffffffffffffffffffffffffffffffffff1663791ac947836000610544877f000000000000000000000000000000000000000000000000000000000000000073ffffffffffffffffffffffffffffffffffffffff1663ad5c46486040518163ffffffff1660e01b8152600401602060405180830381865afa15801561051b573d6000803e3d6000fd5b505050506040513d601f19601f8201168201806040525081019061053f9190610ccb565b610794565b30426040518663ffffffff1660e01b8152600401610566959493929190610dfb565b600060405180830381600087803b15801561058057600080fd5b505af1158015610594573d6000803e3d6000fd5b50505050600080600160009054906101000a900473ffffffffffffffffffffffffffffffffffffffff1673ffffffffffffffffffffffffffffffffffffffff1663ad02b07d6040518163ffffffff1660e01b81526004016040805180830381865afa158015610607573d6000803e3d6000fd5b505050506040513d601f19601f8201168201806040525081019061062b9190610e6a565b915091508173ffffffffffffffffffffffffffffffffffffffff166323b872dd600260009054906101000a900473ffffffffffffffffffffffffffffffffffffffff1661dead846040518463ffffffff1660e01b815260040161069093929190610bfd565b6020604051808303816000875af11580156106af573d6000803e3d6000fd5b505050506040513d601f19601f820116820180604052508101906106d39190610c60565b505050505050565b60008060009054906101000a900473ffffffffffffffffffffffffffffffffffffffff1673ffffffffffffffffffffffffffffffffffffffff168273ffffffffffffffffffffffffffffffffffffffff16149050919050565b60008060009054906101000a900473ffffffffffffffffffffffffffffffffffffffff16905090565b600060146000369050101580156107795750610778336106db565b5b1561078d57601436033560601c9050610791565b3390505b90565b6060600267ffffffffffffffff8111156107b1576107b0610eaa565b5b6040519080825280602002602001820160405280156107df5781602001602082028036833780820191505090505b50905082816000815181106107f7576107f6610ed9565b5b602002602001019073ffffffffffffffffffffffffffffffffffffffff16908173ffffffffffffffffffffffffffffffffffffffff1681525050818160018151811061084657610845610ed9565b5b602002602001019073ffffffffffffffffffffffffffffffffffffffff16908173ffffffffffffffffffffffffffffffffffffffff168152505092915050565b600081905092915050565b50565b60006108a1600083610886565b91506108ac82610891565b600082019050919050565b60006108c282610894565b9150819050919050565b600082825260208201905092915050565b7f4661696c656420746f2073656e64204574686572000000000000000000000000600082015250565b60006109136014836108cc565b915061091e826108dd565b602082019050919050565b6000602082019050818103600083015261094281610906565b9050919050565b6000819050919050565b61095c81610949565b82525050565b600073ffffffffffffffffffffffffffffffffffffffff82169050919050565b600061098d82610962565b9050919050565b61099d81610982565b82525050565b60006040820190506109b86000830185610953565b6109c56020830184610994565b9392505050565b600081519050919050565b60005b838110156109f55780820151818401526020810190506109da565b83811115610a04576000848401525b50505050565b6000601f19601f8301169050919050565b6000610a26826109cc565b610a3081856108cc565b9350610a408185602086016109d7565b610a4981610a0a565b840191505092915050565b60006020820190508181036000830152610a6e8184610a1b565b905092915050565b600080fd5b610a8481610982565b8114610a8f57600080fd5b50565b600081359050610aa181610a7b565b92915050565b610ab081610949565b8114610abb57600080fd5b50565b600081359050610acd81610aa7565b92915050565b60008060408385031215610aea57610ae9610a76565b5b6000610af885828601610a92565b9250506020610b0985828601610abe565b9150509250929050565b600060208284031215610b2957610b28610a76565b5b6000610b3784828501610a92565b91505092915050565b60008115159050919050565b610b5581610b40565b82525050565b6000602082019050610b706000830184610b4c565b92915050565b6000602082019050610b8b6000830184610994565b92915050565b7f4f6e207377617000000000000000000000000000000000000000000000000000600082015250565b6000610bc76007836108cc565b9150610bd282610b91565b602082019050919050565b60006020820190508181036000830152610bf681610bba565b9050919050565b6000606082019050610c126000830186610994565b610c1f6020830185610994565b610c2c6040830184610953565b949350505050565b610c3d81610b40565b8114610c4857600080fd5b50565b600081519050610c5a81610c34565b92915050565b600060208284031215610c7657610c75610a76565b5b6000610c8484828501610c4b565b91505092915050565b6000604082019050610ca26000830185610994565b610caf6020830184610953565b9392505050565b600081519050610cc581610a7b565b92915050565b600060208284031215610ce157610ce0610a76565b5b6000610cef84828501610cb6565b91505092915050565b6000819050919050565b6000819050919050565b6000610d27610d22610d1d84610cf8565b610d02565b610949565b9050919050565b610d3781610d0c565b82525050565b600081519050919050565b600082825260208201905092915050565b6000819050602082019050919050565b610d7281610982565b82525050565b6000610d848383610d69565b60208301905092915050565b6000602082019050919050565b6000610da882610d3d565b610db28185610d48565b9350610dbd83610d59565b8060005b83811015610dee578151610dd58882610d78565b9750610de083610d90565b925050600181019050610dc1565b5085935050505092915050565b600060a082019050610e106000830188610953565b610e1d6020830187610d2e565b8181036040830152610e2f8186610d9d565b9050610e3e6060830185610994565b610e4b6080830184610953565b9695505050505050565b600081519050610e6481610aa7565b92915050565b60008060408385031215610e8157610e80610a76565b5b6000610e8f85828601610cb6565b9250506020610ea085828601610e55565b9150509250929050565b7f4e487b7100000000000000000000000000000000000000000000000000000000600052604160045260246000fd5b7f4e487b7100000000000000000000000000000000000000000000000000000000600052603260045260246000fdfe322e322e302b6f70656e67736e2e737761702e6972656c6179726563697069656e74a26469706673582212206dab5d431d8207e62d703beb77d862de6ee88dc831596d45921f7751a78f527f64736f6c634300080d0033",
  "linkReferences": {},
  "deployedLinkReferences": {}
}